:100000000C9434000C9449000C9449000C94490061
:100010000C9449000C9449000C9449000C9449003C
:100020000C9449000C9449000C9449000C9449002C
:100030000C9449000C9449000C9449000C9449001C
:100040000C9449000C9449000C9449000C9449000C
:100050000C9449000C9449000C9449000C944900FC
:100060000C9449000C94490011241FBECFEFD8E036
:10007000DEBFCDBF11E0A0E0B1E0E0E3F1E002C0FF
:1000800005900D92AE30B107D9F70E948B000C9409
:1000900096000C940000209A2198299A0895199BA3
:1000A00009C0289A0E945D00882331F00E948400D4
:1000B0000C946F002898F6CF08958091C000881F97
:1000C0008827881F08951092C50087E68093C40092
:1000D00088E18093C10086E08093C20008959091EA
:1000E000C00095FFFCCF8093C6000895CF93DF93A7
:1000F000EC018991811105C08AE0DF91CF910C94C8
:100100006F000E946F00F5CF8091C00087FFFCCF89
:100110008091C60008950E944B000E94630080E019
:1001200091E00E9476000E944F00FDCFF894FFCF2F
:0E013000545820776F726B696E67210A0000C9
:00000001FF
