:100000000C943A000C9457000C9457000C94570031
:100010000C9457000C9457000C9457000C94570004
:100020000C9457000C9457000C9457000C945700F4
:100030000C9457000C9457000C9457000C945700E4
:100040000C9457000C9457000C94A9000C94570082
:100050000C9457000C9457000C9457000C945700C4
:100060000C9457000C9457006364696E6F7073753D
:1000700078585B0011241FBECFEFD8E0DEBFCDBFA4
:1000800011E0A0E0B1E0ECEFF8E002C005900D92C5
:10009000AA31B107D9F721E0AAE1B1E001C01D9270
:1000A000AE34B207E1F70E94FB000C947C040C9480
:1000B0000000209A08950E94EE00E0911B01F0E0FC
:1000C000E45EFE4F8A3039F4108210921B0181E009
:1000D00080931A010895808380911B018F5F809324
:1000E0001B010895CF93DF9300D0CDB7DEB78FEF1C
:1000F0009FEF9A838983CE0101969F938F9380E02F
:1001000091E09F938F938CE191E09F938F930E9456
:1001100007010F900F900F900F900F900F90019785
:1001200069F489819A81805891098038910530F469
:10013000289A0F900F90DF91CF9108952898F9CFCA
:1001400080911A01882321F00E94720010921A01F6
:1001500008951F920F920FB60F9211242F933F9381
:100160004F935F936F937F938F939F93AF93BF93BF
:10017000EF93FF930E945B00FF91EF91BF91AF91CE
:100180009F918F917F916F915F914F913F912F91AF
:100190000F900FBE0F901F9018951092C50087E624
:1001A0008093C40088E98093C10086E08093C200F8
:1001B00008959091C00095FFFCCF8093C6000895EC
:1001C000CF93DF93EC018991811105C08AE0DF9123
:1001D000CF910C94D9000E94D900F5CF8091C00036
:1001E00087FFFCCF8091C60008958091C000881FD2
:1001F0008827881F08950E9459000E94CD008CE036
:1002000091E00E94E00078940E94A000FDCFAEE053
:10021000B0E0EDE0F1E00C94550485E08C838B892F
:100220009C899A838983AE01495E5F4F6D897E897F
:10023000CE0101960E94B7022E96E2E00C94710462
:10024000FC01CA01DB0120FD08C023FD05C022FF1F
:1002500002C0B383A283918380830895CF92DF92FB
:10026000EF92FF92CF93DF9300D000D0CDB7DEB7EF
:100270006B017C0183E044FD10C084E046FD0DC0AD
:10028000D601F701AA0FBB1FEE1FFF1F1094D1F775
:10029000CA0EDB1EEE1EFF1E81E0CC0CDD1CEE1C28
:1002A000FF1C81508111F9CFD701C601820F911D2A
:1002B000A11DB11DBC01CD010F900F900F900F90AB
:1002C000DF91CF91FF90EF90DF90CF9008950F9343
:1002D0001F93CF93DF938C01C8010E94EB03EC01C5
:1002E00097FD08C00E94D703892BB1F7B801CE0152
:1002F0000E942A04CE01DF91CF911F910F910895A2
:10030000A0E0B0E0E6E8F1E00C944C04082F992E50
:10031000C62F5A01122F0E94EB03FC019927EB32E2
:1003200019F08D9789F41068C150C11106C080E0A2
:10033000CDB7DEB7EBE00C946804802F992D0E94B6
:10034000EB03FC0197FDF3CFD12FDD7F812F80736D
:10035000811131C0E03379F5EE24EA94EC0EC1301E
:1003600039F0802F992D0E94EB03FC0197FF15C0F7
:10037000C12CD12C7601D7FF08C0F094E094D09422
:10038000C094C11CD11CE11CF11C2D2FB701A6018A
:10039000C5010E94200181E0CBCF8F7D883529F5F2
:1003A000D264C250CC2321F3802F992D0E94EB03FD
:1003B000FC0197FDDDCFC12CD12C760120ED2E0F55
:1003C0002830D8F0D4FD09C02A30B8F0D6FF05C0D7
:1003D0002F7D8FEE820F863078F0602F792DCF0140
:1003E0000E942A04D1FDC7CFA2CF16FF03C0D2605E
:1003F000CE2DE1CFD261FCCF27504D2FC701B601E2
:100400000E942E016B017C01D260C150CC2309F403
:10041000B2CF802F992D0E94EB03FC0197FFCECF26
:10042000E1CFA0E2B0E0E7E1F2E00C9449046C0116
:10043000962E7A01CE0101965C0180E2F5011192BF
:100440008A95E9F7F6018380890120E030E0B0E089
:10045000712CA0E041E050E0F80183FC959183FE0F
:100460009191892F8F01911107C000E010E0C80120
:10047000A096EEE00C9465049E3539F42115310503
:1004800039F5A1E02F5F3F4FE7CF6A2F70E0621789
:100490007307F4F49D3539F19D32D1F47720F1F0F2
:1004A000E82FE695E695E695EA0DFB2DF11D682F00
:1004B00067703A0102C0660C771C6A95E2F790817A
:1004C000962990838B1769F08B1730F48F5FE8CFF4
:1004D0007110E6CFB92FE4CF8150E2CF7724739427
:1004E000D1CF712CCFCF772019F08E8180628E838F
:1004F000AA2361F0F5019E012F5D3F4F8081DF014E
:10050000319680958C93E217F307C1F78824839482
:10051000C6010E94EB0397FD16C0E82FE695E6950D
:10052000E695EA0DFB2DF11D208130E0AC0147700E
:10053000552702C0359527954A95E2F720FD06C05C
:10054000B6010E942A04882059F08FCFE114F104EB
:1005500019F0F70181937F019A94812C9110D8CFE3
:10056000E114F10409F483CFF701108280CFA6E0F3
:10057000B0E0EDEBF2E00C9449045C016D837E8306
:10058000742E652EDC0117961C921E921697C12CB4
:10059000D5011396FC90ED81FE81F3FC8591F3FE6D
:1005A0008191182FFE83ED838823F9F090E00E945B
:1005B000D703892B21F0C5010E946701E9CF1532CD
:1005C00051F4ED81FE81F3FC1591F3FE1191FE8350
:1005D000ED83153269F4C5010E94EB0397FDA4C0B9
:1005E0001817B1F2B5010E942A048C2D90E0A0C02A
:1005F00000E01A3249F4ED81FE81F3FC1591F3FE1F
:100600001191FE83ED8301E0D12C20ED210F2A30E2
:1006100060F101FF42C0DD2041F3183609F440C00B
:100620001C3609F449C0112301F3612F70E088E6FC
:1006300090E00E94E003892BC1F2E12CF12C00FD37
:1006400006C0E72DF62DE190F1907E2E6F2E1E361E
:1006500009F03CC0D50116964D915C9160E070E0C8
:10066000202FC7010E94200193CF02608D2D90E0C2
:10067000A0E0B0E089839A83AB83BC8340E2BC01F5
:10068000CD010E942E01D62EED81FE81F3FC159145
:10069000F3FE1191FE83ED83B8CFDD24DA94BDCF54
:1006A000ED81FE81F3FC1591F3FE1191FE83ED8344
:1006B000183609F0B8CF08600460ED81FE81F3FCC4
:1006C0001591F3FE1191FE83ED83ADCF1336B1F496
:1006D00001FD02C0DD24D394C5010E94EB0397FD08
:1006E00023C0E114F10419F0F70181937F01DA943A
:1006F000D110F2CF00FD4CCFC3944ACF1B35E1F4AB
:100700002D813E81A7016D2DC5010E9411028D83AF
:100710009E83ED81FE81EF2B69F7D50113968C91B5
:100720008073882309F461CF8FEF9FEFC1105DCFF5
:100730002696EEE00C946504C5010E94670197FDC2
:10074000F3CF1F3691F130F4143641F0193639F0F9
:10075000006405C01337A1F01537D1F70062202FD0
:10076000A7016D2DC5010E9480018823D5CFE1141A
:10077000F10419F0F70181927F01DA94DD2071F024
:10078000C5010E94EB034C0197FD08C00E94D703EE
:10079000892B69F3B501C4010E942A04E114F10414
:1007A00009F4A8CFF7011082A5CF0061D8CF91112D
:1007B0000C944204803219F089508550C8F708958E
:1007C000FC010590061621F00020D9F7C00108951C
:1007D0003197CF010895CF93DF93EC018B8180FF98
:1007E0001BC086FF0CC08F7B8B838E819F810196FF
:1007F0009F838E838A8190E0DF91CF91089582FF5D
:1008000019C0E881F9819081292F092E000C330B42
:10081000911105C080628B838FEF9FEFEDCF3196F2
:10082000F983E8838E819F8101969F838E83C9011E
:100830009927E2CFEA85FB85CE0109959C0197FFB8
:10084000F1CF8B812F3F3F4F19F490E1892BE3CFFC
:1008500090E2FCCFFB01238120FF11C026FD0FC0D9
:100860008F3F980771F082832F7D20642383268138
:1008700037812150310937832683992708958FEFD7
:100880009FEF08959927882708952F923F924F92BE
:100890005F926F927F928F929F92AF92BF92CF9210
:1008A000DF92EF92FF920F931F93CF93DF93CDB719
:1008B000DEB7CA1BDB0B0FB6F894DEBF0FBECDBF91
:1008C00009942A88398848885F846E847D848C8462
:1008D0009B84AA84B984C884DF80EE80FD800C816B
:1008E0001B81AA81B981CE0FD11D0FB6F894DEBF4E
:0C08F0000FBECDBFED010895F894FFCFBE
:1008FC006C6564706F77657220256400545820779E
:0A090C006F726B696E67210A00002C
:00000001FF
